:1074000080E189BD82E189BD09B400FEFDCF089508
:10741000AA2069F08091E9008F931092E90089D445
:1074200083FF01C008D58F9187708093E90008958C
:107430008EEF0090E10008220092E1000895F20131
:10744000F999FECFF2BDE1BD0895F9DFF89A80B554
:1074500008C0F5DF1FBA80BD0FB6F894FA9AF99A02
:107460000FBE31962F010895E0E0F0E085919491F0
:107470000196089582EE8BB98BEA37D0109289007D
:107480008AEF8093880082E080936F0083E080938E
:1074900081004AD049D05C98EDE6F7E785913AD073
:1074A000E038E1F781E08093D7008AE482BF109250
:1074B000D8001092E2001092DA001092E10080E809
:1074C00008D019BCAA241092E00049D489E03AD42B
:1074D00081E98093D8000895A3E6B1E090E81AD03E
:1074E0008D939A95E1F7089586E008D010C083E067
:1074F00005D08F2F0FD08E2F0DD080E05E9A599837
:1075000009C005D085E0FADF05D080FDFDCF599A8E
:107510005E9808958EBD8DB587FFFDCF8EB5089519
:107520008FE08221E9F7F3DFE3E6F6E05C9A40E4DE
:1075300058E06081718198E08FEF60FF8F7070FF7D
:10754000807FE8DF669576959A95B1F7E058FF4F12
:107550005A9579F7EE5FF3404A9551F70895E3E6BF
:10756000F1E097FC36C094FC4DC092FE08959684DD
:107570009920D1F3F894C089D78520E030E080E0ED
:1075800090E4AFEFBFEF119689199040E0F72D011D
:10759000BD4F8D0127FD13C0E0E0F8E011928EE7AA
:1075A000819392E4E11791939AE508F092E4E33431
:1075B000C9F781931082B7DFFE01219698DF8CDF37
:1075C000F901DBD420583F4F040D151D9A9411F793
:1075D00004C28301282D60906C0170906B0143D030
:1075E00019F48823C1F70895380188243CD0C9F5DF
:1075F00080916A01821709F4830160906E01709096
:107600006D01F4CF80E1982E60906E0170906D0155
:107610002AD059F48823B1F708959FEF95FC03C051
:1076200096FE089591E097FB890E662477248301E6
:10763000222719D0B1F48823A1F380916A0136F092
:10764000881650F4821730F0213003C0881520F4DA
:10765000281710F48301282F60906E0170906D013F
:10766000E8CF3801822EF30142DF36DFC3E6D1E0F6
:10767000E6E6F7E709908591081621F4ED36D1F793
:107680000880801044CFC9E029DFCA95E9F7D0E12E
:1076900097FC55C094FC37C096FE1AC0C3E6D2E0F2
:1076A000E3E6F6E098E088E78E0F00840192E817A1
:1076B000E1F7884F09900192E817E1F7C858DF4FCA
:1076C0009A9589F72DDFC85FD340C33E49F749C07B
:1076D000C3E6D6E0EBE5FAE098E08E2F88570290FB
:1076E0000086E817E1F738960A900292E817E1F76A
:1076F0003897C857D0409A9581F712DFC850DC4FB1
:10770000C33E41F72EC0A3EEB6E0E3E6F6E09AE012
:10771000C6E00D9080818025807F802582958193B1
:10772000A336B90709F4B2E0E336F90709F4F2E049
:10773000E336FC0771F7F4DEDA9529F712C0A3EE01
:10774000B9E0E3E6FAE092E00E90829180258F7036
:10775000802582958083E336F907B1F7E1DEDA957B
:1077600071F78827089541524455424F5915003FFB
:1077700075104FA055A100A200A87F81CFB121AF05
:107780000000FFFFCFCFFFFFFFFFCFCFFFFF0000C5
:10779000FE067E7E06FE46565616FE0656461EFE21
:1077A0003F61E9E3FFE3EBE3FFE3EBE3FFE16B3F83
:1077B00012011001020000084123370001000000FF
:1077C000000109023E0002010080320904000001AC
:1077D000020201000524001001042402040524060D
:1077E0000001070582030800FF09040100020A00E6
:1077F00000000705040210000107058302100001C4
:1078000011241FBE04B714BE88E18093600010925B
:1078100060008EEF9AE09EBF8DBF222433242101A9
:107820003101410180E88AC00F928F939F931F928C
:107830000FB60F9211244F936F938091DA0080FF5F
:1078400037C023C00F920FB68F939F93EF93FF9390
:1078500088278093850080938400E0E5F1E09281A1
:10786000907261F490818917980B908309F45D9868
:1078700091818917980B918309F42898239411F426
:107880008315381EFF91EF9154C08091D80080FF7E
:107890000FC08091DA008E7F8093DA008091D9004A
:1078A00080FF04C0ADDD81E0A82E02C019BCAA246F
:1078B0008091E10080FF0BC03FD280FF08C03FD223
:1078C0008091D800806205DE19BC85E0A82E8091E9
:1078D000E10084FF1AC030D284FF17C091DD80918F
:1078E000D8008F7DF6DD8FEEA4DD26D28F7E8160FD
:1078F00029D280915301882331F48091E30087FDE0
:1079000002C081E001C084E0A82E8091E10083FFE5
:107910000CC012D283FF09C087EF8BDD82E0A82E56
:107920001092530185DD0BD21AD26F914F910F90B7
:107930001F909F918F910FBE0F90189580936100BB
:1079400010926100B1E0B5BF82E085BF80EF85B9DC
:1079500087EE84B91DB8769A10BA83EF81BB82E6B0
:107960008BB982EF8AB980E58CBDBDBDA0E0E0EBAC
:10797000F7E705900D92A035E1F71D92BB30E9F7CE
:1079800000FD7C9B02C070DD41F574DD78946BDEF8
:1079900071F0ABE9B7E0E0E8F7E790E105900D9210
:1079A0009A95E1F7A059BF4FE03BB9F7BDDD52D042
:1079B0002FDD80915201807861F48FB18095807FB6
:1079C00066991C9B8460982E28DE8110C8DD92FC8D
:1079D00002C0332062F748DD51F3F89489EB85DD6E
:1079E00081E08093E00010926F001092810010926D
:1079F00085001092840081E085BF15BE2E9A2F9AD3
:107A00002D9A5D9828980C94000091D107C044D11C
:107A100002C0AA2039F08DD182FFFBCF85FFF7CFBE
:107A20008091F1000895082E83E082D185FD07C082
:107A300077D102C0AA2069F07CD180FFFBCF0092F1
:107A4000F10080915201807221F45D9A84E6809366
:107A5000500108956CD182FF21C180915201807242
:107A600021F4289A84E680935101CFDF182F8534C2
:107A700031F422248EE7382EE2DC8DE0F8C0843524
:107A800011F4C3DFFACF8C34C1F38035B1F38437FE
:107A900011F480E0ECC0813429F4B7DF582EB5DF53
:107AA000482EEBCF833539F4E6E6F7E78591BBDF67
:107AB000ED36E1F7DDC0863521F482E3B4DF81E302
:107AC000D6C0863761F481E3669B8E5F1C9B8F5F17
:107AD000AADF8FB1809582958F708F5BC8C0883781
:107AE000A9F493DF80935201289884FD289A5D9829
:107AF00083FD5D9A2E9A81FD2E982F9A82FD2F98F4
:107B00002D9A80FD2D9887FD8824B7CF8A3649F4B9
:107B10008FE9F4DCC3E0FEDC86DFCA95E1F7F7DC31
:107B2000A7C0833731F487E87EDF85E97CDF8EE10B
:107B30009EC0823631F489E576DF80E074DF80E82C
:107B400096C0823419F0873609F07DC033245DDF9A
:107B5000D82F5BDFC82F59DF082F8354843008F0FB
:107B600085C0063411F4440C551CF20110926F00CC
:107B70001736B9F4033489F483E0BADCCBDC8EB574
:107B80001EBC51DF0DB42197D1F7C1DC08C006340B
:107B900011F4859101C059DC46DF2197C2F72F010E
:107BA0004AC00334A9F4E11104C09EDC88EDA0DCD6
:107BB000A8DC9ADC82E09CDC28DF0DB48EBDCA957F
:107BC000D9F73196A8DC9DDCDA9569F72F0131C031
:107BD0000634F1F49F01F437D8F4E2D119C015DF6F
:107BE000063461F4C0FB46F0F43728F4182E81E027
:107BF00087BFE89511243296082E0AC0043439F460
:107C0000DF01B370AD59B94F8D93319601C021DCBE
:107C100021972AF7043431F42F01F370FE2B49F435
:107C200083DC07C0063429F42F01F901F43708F486
:107C3000B5D18DE0F8DE063411F45694479482E015
:107C400080936F0015C08237E1E049F08634E0E0B0
:107C500031F08E34E3E019F0813531F4E2E0F0E008
:107C600089E087BF849103C08B3111F08FE3DBDEA5
:107C700083E0DBDB55D095FF03C009C0AA2071F07B
:107C800058D080FFFBCF4CD002C0AA2039F051D091
:107C900080FFFBCF84E0C9DB8BE743C00895E4E5B8
:107CA000F1E067E090915B0180915C01913231F0ED
:107CB000913AE1F58132D1F55ED181C0823271F421
:107CC0008191805B8191844089F580915D0180FD87
:107CD0002DC0F89481E08093E00092CD803231F5A0
:107CE0004AD1AA20E9F08530D9F023D083FD18C00D
:107CF00082FFF7CF04C094DE8193615031F0909100
:107D0000F3008091F200892BB1F7C6DF611549F7C6
:107D100004C0AA2029F0853019F00BD080FFF9CFDC
:107D20008EE79091E80089238093E800089584E02D
:107D30007CDB8091E80008958091E2000895FCDFEB
:107D40008E7F80618093E200089582E061EC09D02B
:107D500083E061E802D084E060E842E103C080E0B3
:107D600060E042E062DB81E007D01092ED006093BA
:107D7000EC004093ED0008959091EB00892B8093E7
:107D8000EB00089560E0923029F0913029F4E0E0B2
:107D900062E102C0E2E16EE3F1E0089580915B01EF
:107DA00088234CF402C0AA20C1F3C3DF82FFFBCFBB
:107DB00073CFAA2091F3BDDF80FFFBCFB1CF4091FD
:107DC0006101509162014617510520F0462F61155F
:107DD00009F4A6DF50E022C0AA2061F1853051F1FC
:107DE000A8DF83FD59CFA5DF82FD21C080FF16C02B
:107DF0003091F3002091F20006C081918093F10050
:107E000041502F5F3F4F411519F028303105A8F33D
:107E100050E02830310509F451E082DF4115E1F6E8
:107E20005523D1F604C0AA2029F0853019F081DF4E
:107E300082FFF9CF31CFEBE5F1E0F2DD8193E3365C
:107E4000E1F72DDF76DF83FF91C080915B01909198
:107E50005C01913009F170F09330F1F0953009F444
:107E600044C0963009F456C0983009F460C0993087
:107E700059F767C0823841F780915F01D5DA2091C8
:107E8000EB001092E90077D022952695217020937F
:107E9000F1001092F10052C0882311F08230A1F657
:107EA0008F71823089F680915D018823D1F4209111
:107EB0005F01277049F22093E9008091EB0080FF79
:107EC00010C0933011F480E20BC080E155DF81E0F7
:107ED000880F2A95E9F78093EA001092EA0088E07B
:107EE0004BDF1092E90047D02AC0882391F410910B
:107EF0005D0110680FB7F8943ED050DF1ADF80FFA5
:107F0000FDCF1093E300103883E009F482E0A82E3F
:107F10000FBF2CC08058823048F580915D01909150
:107F20005E0130DF603011F126D049DF1FC080389C
:107F3000E9F421D0809153018093F100F1DE2EDF2E
:107F400015C0882399F490915D01923078F4909354
:107F5000530111D023DF80915301882321F48091B4
:107F6000E30091E087FD94E0A92EEFDEE2DE83FFDF
:107F7000089580E201DF87EFD4CEA3E6B1E0F437C5
:107F8000B8F40ED090E40D901D9081E087BFE89585
:107F900032969A95C1F71124E058F04085E001C06F
:107FA00083E001D081E187BFE89507B600FCFDCFF3
:027FB000089532
:067FFA003231C0CFFBDCB8
:040000030000740085
:00000001FF
